:020000040800F2
:10000000002000203111000861100008691000086C
:1000100000000000000000000000000000000000E0
:100020000000000000000000000000007110000847
:1000300000000000000000007B1000088510000890
:1000400081110008000000008111000881110008E2
:100050008111000881110008811100088111000838
:1000600000000000A1100008B9100008811100086C
:10007000D1100008E91000088111000800000000FC
:10008000811100080000000000000000811100083C
:100090000000000081110008811100088111000892
:1000A0008111000881110008811100080111000868
:0800B0008111000800000000AE
:1000B80010B5064C2378002B07D1054B002B02D036
:1000C800044800E000BF0123237010BD1000002089
:1000D80000000000DC610008044B10B5002B03D0C1
:1000E8000349044800E000BF10BDC04600000000FE
:1000F80014000020DC610008002243088B4274D3FE
:1001080003098B425FD3030A8B4244D3030B8B4210
:1001180028D3030C8B420DD3FF22090212BA030C19
:100128008B4202D31212090265D0030B8B4219D3FA
:1001380000E0090AC30B8B4201D3CB03C01A52411A
:10014800830B8B4201D38B03C01A5241430B8B4262
:1001580001D34B03C01A5241030B8B4201D30B034B
:10016800C01A5241C30A8B4201D3CB02C01A524172
:10017800830A8B4201D38B02C01A5241430A8B4235
:1001880001D34B02C01A5241030A8B4201D30B021E
:10019800C01A5241CDD2C3098B4201D3CB01C01A38
:1001A800524183098B4201D38B01C01A5241430942
:1001B8008B4201D34B01C01A524103098B4201D330
:1001C8000B01C01A5241C3088B4201D3CB00C01A9D
:1001D800524183088B4201D38B00C01A5241430815
:1001E8008B4201D34B00C01A5241411A00D201463A
:1001F800524110467047FFE701B5002000F0F0F8C3
:1002080002BDC0460029F7D076E7704703460B4386
:100218007FD4002243088B4274D303098B425FD3F7
:10022800030A8B4244D3030B8B4228D3030C8B4223
:100238000DD3FF22090212BA030C8B4202D3121209
:10024800090265D0030B8B4219D300E0090AC30BDE
:100258008B4201D3CB03C01A5241830B8B4201D38B
:100268008B03C01A5241430B8B4201D34B03C01A74
:100278005241030B8B4201D30B03C01A5241C30AEC
:100288008B4201D3CB02C01A5241830A8B4201D35D
:100298008B02C01A5241430A8B4201D34B02C01A47
:1002A8005241030A8B4201D30B02C01A5241CDD2EC
:1002B800C3098B4201D3CB01C01A524183098B4237
:1002C80001D38B01C01A524143098B4201D34B0120
:1002D800C01A524103098B4201D30B01C01A524183
:1002E800C3088B4201D3CB00C01A524183088B420A
:1002F80001D38B00C01A524143088B4201D34B00F3
:10030800C01A5241411A00D2014652411046704764
:100318005DE0CA0F00D04942031000D34042534069
:1003280000229C4603098B422DD3030A8B4212D329
:10033800FC22890112BA030A8B420CD3890192115B
:100348008B4208D3890192118B4204D389013AD098
:10035800921100E08909C3098B4201D3CB01C01A6D
:10036800524183098B4201D38B01C01A5241430980
:100378008B4201D34B01C01A524103098B4201D36E
:100388000B01C01A5241C3088B4201D3CB00C01ADB
:10039800524183088B4201D38B00C01A5241D9D2F3
:1003A80043088B4201D34B00C01A5241411A00D274
:1003B8000146634652415B10104601D34042002B70
:1003C80000D54942704763465B1000D3404201B5EF
:1003D800002000F005F802BD0029F8D016E77047A4
:1003E8007047C04680B58AB000AF00F0C7FEDE4B4C
:1003F8005A6BDD4B02210A435A63DB4B5B6B0222CB
:1004080013403B603B683B1D180014231A00002171
:1004180005F0B4FE3B1D01221A603B1D11225A60F3
:100428003B1D00229A603B1D0022DA603B1DCF4A2B
:100438001900100002F002FFCC4B00220121180025
:1004480003F060F8642000F01FFF3B1D00225A6093
:100458003B1DC64A1900100002F0F0FE00F0BEF97C
:1004680000F0C2FB00F09AFB00F012FA00F0B8FAB4
:1004780000F028FB00F074FBA023DB0501224021DB
:10048800180003F03FF8A023DB05002280211800A4
:1004980003F038F8B649B74B0222180001F0F8FA11
:1004A800B54B1B681A68B44B1B680E218A431A6047
:1004B800B04B1B685A68AF4B1B681C218A435A60B3
:1004C800AE4B180003F0DAFE2723FB1801221A703E
:1004D80000233B620023FB61002200210D2002F073
:1004E8005DFB002201210C2002F058FB00220221B2
:1004F8001B2002F053FB62B6C046A149A148642301
:100508000B2204F0C9FB0023BB610EE0012000F0C0
:10051800B7FB642000F0B8FE002000F0B1FB6420B7
:1005280000F0B2FEBB690133BB61BB69022BEDDD94
:10053800002000F0A5FB944B1B78DBB2012B00D008
:100548000EE1924B924A1A608F4B00221A70884B28
:100558001B889BB21B051A0D8E4B1A60844B5B8857
:100568009BB21B051A0D8C4B1A608C4B1B685A1CCE
:100578008A4B1A60894B1B68894A934208D9874B72
:1005880000221A6087497F4B0422180004F028FCD7
:100598002723FB181B78042B00D1CCE000DDDFE01B
:1005A800032B00D1A3E000DDDAE0012B02D0022BFF
:1005B80039D0D5E03B6A01333B623B6A7A4A9342C1
:1005C80003D8012000F05CFB09E03B6A774A9342BC
:1005D80003D8002000F054FB01E000233B626E4B7F
:1005E8001A6880231B019A4203D3FB690133FB611C
:1005F80005E0FB69642B02D9FB69643BFB61FB697D
:100608006B4A934200D8A8E00023FB612723FB181C
:1006180002221A7000233B6266495A4B03221800D3
:1006280004F0DEFB99E03B6A01333B623B6A5F4AB8
:10063800934203D8012000F023FB09E03B6A5E4A9D
:10064800934203D8002000F01BFB01E000233B622B
:10065800504B1A6880231B019A4206D3574B1B68DC
:10066800574A9A18554B1A6003E0544B1A68534B73
:100678001A60544B1B889BB201339AB2514B1A80B3
:10068800504B1B889AB280239B019A4267D34B4BED
:100698001B685A0B434B1A604A4B00221A80474B7F
:1006A80000221A603F4B1A68CD239B009A4211D34F
:1006B8003C4B1B68444A93420CD82723FB1803225F
:1006C8001A7000233B6241492E4B0822180004F09F
:1006D80087FB44E02723FB1804221A7000233B629F
:1006E8003B49284B0A22180004F07AFB37E03B6AA2
:1006F80001333B623B6A374A934203D8012000F03A
:10070800BFFA09E03B6A344A934203D8002000F05C
:10071800B7FA01E000233B62A023DB050122402158
:10072800180002F0EFFEA023DB050122802118004B
:1007380002F0E8FE14E0002000F0A2FAA023DB0596
:1007480000224021180002F0DDFEA023DB05002274
:100758008021180002F0D6FE02E0C04600E0C04644
:100768000A4B0B4A1A60E6E60010024000040050EB
:100778003000002048000020AC0000206401002068
:10078800F4610008B00100202C0000200030004077
:10079800AAAA00003C0000204000002044020020DB
:1007A800A0860100340000204FC300009F8601008E
:1007B8001F4E0000006200083F0D030038000020B3
:1007C800FF07000044000020CC0400000462000879
:1007D80010620008DF930400BF27090090B593B0AA
:1007E80000AF14243B19180034231A00002105F027
:1007F800C5FC3B1D180010231A00002105F0BEFCA3
:1008080080239B00180002F0B5FE3B1902221A60F3
:100818003B1980225200DA6021007B1800221A61FD
:100828007B1840225A617B180222DA617B18022267
:100838001A627B1800225A627B1808229A627B1877
:1008480080229202DA627B18802292051A637B1852
:10085800180002F0DBFE031E01D000F06FFA3B1D0A
:1008680007221A603B1D02225A603B1D00229A6033
:100878003B1D0022DA603B1D0221180003F0D6F967
:10088800031E01D000F05AFAC046BD4613B090BD11
:1008980080B58AB000AF1023FB18180018231A007F
:1008A800002105F06BFC3B1D18000C231A000021E9
:1008B80005F064FC464B474A1A60454B8022D20536
:1008C8005A60434B00229A60414B0022DA60404B49
:1008D800802292031A613E4B08225A613C4B002247
:1008E8001A763B4B00225A76394B01229A76384BBE
:1008F8000222DA61364B202200219954344B00221F
:100908005A62334B00229A62314B2C2201219954AE
:100918002F4B00221A632E4B05225A632C4B0522BB
:100928009A632B4B3C2200219954294B0022DA640C
:10093800274B180000F004FF031E01D000F0FEF959
:1009480010217B18244A1A607B18C02212045A60AE
:100958007B1801229A607B1800221A737B180022E8
:100968001A617B1800225A617A18194B1100180075
:1009780001F02CFC031E01D000F0E0F93B1D012220
:100988001A603B1D00225A603B1D00229A603A1DE6
:100998000F4B1100180001F041FA031E01D000F0BE
:1009A800CDF93B1D0D4A1A603B1D04225A603B1DC0
:1009B80000229A603A1D064B1100180001F02EFA29
:1009C800031E01D000F0BAF9C046BD460AB080BD8A
:1009D80048000020002401400000C07C0200000400
:1009E80080B58CB000AF2023FB18180010231A0024
:1009F800002105F0C3FB0C23FB18180014231A0070
:100A0800002105F0BBFB3B0018000C231A00002155
:100A180005F0B4FB294B2A4A1A60284B3F225A603A
:100A2800264B00229A60254B0922DA60234B0022CC
:100A38001A61224B00225A61204B00229A611F4BF7
:100A4800180003F0C3FB031E01D000F077F9202142
:100A58007B18802252011A607A18184B110018006E
:100A680003F062FD031E01D000F068F90C217B1829
:100A780000221A607B1800225A607A180F4B110066
:100A8800180003F027FE031E01D000F057F93B00C1
:100A980000221A603B0000225A603B0000229A6044
:100AA8003A00064B1100180004F026F8031E01D086
:100AB80000F044F9C046BD460CB080BD640100207A
:100AC800002C014080B500AF234B244A1A60224B0A
:100AD800E12252025A60204B00229A601E4B0022EB
:100AE800DA601D4B00221A611B4B08225A611A4B0F
:100AF80000229A61184B0022DA61174B00221A6211
:100B0800154B00225A62144B00229A62124B1800AD
:100B180004F06CF8031E01D000F010F90E4B002110
:100B2800180005F04BFA031E01D000F007F90A4B34
:100B38000021180005F082FA031E01D000F0FEF82B
:100B4800054B180005F000FA031E01D000F0F6F876
:100B5800C046BD4680BDC046B001002000380140F7
:100B680080B500AF094B0A4A1A60084B094A1A6057
:100B7800064B03225A60054BFA2292009A60034BF7
:100B8800054A1A60C046BD4680BDC04600300040D8
:100B9800CCCC000055550000AAAA000080B582B050
:100BA80000AF104B9A6B0F4B01210A439A630D4B10
:100BB8009B6B012213407B607B6800220021092087
:100BC80001F0ECFF092001F0FEFF002200210A20BD
:100BD80001F0E4FF0A2001F0F6FFC046BD4602B06E
:100BE80080BDC0460010024090B589B000AF0C240B
:100BF8003B19180014231A00002105F0BFFA1E4BF8
:100C08005A6B1D4B02210A435A631B4B5B6B022232
:100C18001340BB60BB68184B5A6B174B01210A4342
:100C28005A63154B5B6B012213407B607B68A023E2
:100C3800DB0500224021180002F064FC0F4B012262
:100C48000121180002F05EFC21007B1801221A60C5
:100C58007B1811225A607B1800229A607B180022A8
:100C6800DA607B18054A1900100002F0E7FAC0465E
:100C7800BD4609B090BDC0460010024000040050B7
:100C880090B589B000AF0200FB1D1A701F4B1B788E
:100C9800FA1D12789A4234D01C4BFA1D12781A7039
:100CA8000C243B19180014231A00002105F066FAD9
:100CB80021007B1801221A607B1800229A607B1899
:100CC8000022DA60FB1D1B78002B0FD07B18112245
:100CD8005A607B180E4A1900100002F0AFFA0C4B4C
:100CE80000220121180002F00DFC0BE00C217B18FA
:100CF80000225A607B18064A1900100002F09EFA7A
:100D080000E0C046BD4609B090BDC04600000020C6
:100D18000004005080B582B000AF78607B681B6823
:100D2800044A934202D1044B01221A70C046BD46C0
:100D380002B080BD002C01402C00002080B584B09A
:100D480000AF72B6C046134B5A6B124B02210A43CE
:100D58005A63104B5B6B02221340FB60FB68012057
:100D6800FFF78EFF0023BB6002E0BB680133BB6066
:100D7800BB68094A9342F8DD0020FFF781FF002392
:100D88007B6002E07B6801337B607B68024A9342A8
:100D9800F8DDE4E7001002409F86010080B582B0CC
:100DA80000AF0F4B1A6C0E4B01210A431A640C4B0F
:100DB8001B6C012213407B607B68094BDA6B084B84
:100DC800802149050A43DA63054BDA6B80235B050A
:100DD80013403B603B68C046BD4602B080BDC0467C
:100DE8000010024090B58BB000AF786014243B1916
:100DF800180014231A00002105F0C0F97B681B684D
:100E0800324A93425DD1324B1A6C314B80214903EF
:100E18000A431A642E4B1A6C80235B0313403B6110
:100E28003B692B4B5A6B2A4B01210A435A63284BC7
:100E38005B6B01221340FB60FB683B1903221A60BD
:100E48003B1903225A603B1900229A603A19A023E1
:100E5800DB051100180002F0F1F91E4B1E4A1A605A
:100E68001C4B05225A601B4B00229A60194B00222A
:100E7800DA60184B80221A61164B802252005A61A0
:100E8800144B8022D2009A61124B2022DA61114B56
:100E9800802292011A620F4B180001F0B1FE031E66
:100EA80001D0FFF74BFF7B680A4A1A65094B7A683D
:100EB8009A62002200210C2001F070FE0C2001F043
:100EC80082FEC046BD460BB090BDC046002401401E
:100ED80000100240AC0000200800024080B584B039
:100EE80000AF78607B681B680E4A934215D10E4BA1
:100EF8001A6C0D4B802109010A431A640A4B1A6CBB
:100F080080231B011340FB60FB68002200210D2099
:100F180001F044FE0D2001F056FEC046BD4604B067
:100F280080BDC046002C01400010024090B591B031
:100F380000AF78602C23FB18180014231A00002136
:100F480005F01CF914243B19180018231A00002175
:100F580005F014F97B681B683A4A93426ED13B1935
:100F680001221A603B1900225A603B19180003F04D
:100F780007F8031E01D0FFF7E1FE334B1A6C324B22
:100F88008021C9010A431A642F4B1A6C8023DB01A4
:100F980013403B613B692C4B5A6B2B4B02210A4394
:100FA8005A63294B5B6B02221340FB60FB682C21C0
:100FB8007B1840221A607B1802225A607B18002294
:100FC8009A607B180022DA607B1800221A617B186D
:100FD8001E4A1900100002F031F91D4B1D4A1A6013
:100FE8001B4B33225A601A4B10229A60184B00226E
:100FF800DA60174B80221A61154B00225A61144B94
:1010080000229A61124B0022DA61114B00221A6207
:101018000F4B180001F0F4FD031E01D0FFF78EFE00
:101028007B680B4ADA670A4B7A689A6200220021C9
:101038001B2001F0B3FD1B2001F0C5FDC046BD46D5
:1010480011B090BD0038014000100240000400506B
:10105800080100201C00024080B500AFC046FDE733
:1010680080B500AFC046FDE780B500AFC046BD46BD
:1010780080BD80B500AFC046BD4680BD80B500AF1D
:1010880000F0E6F8034B0121180002F058FAC046B8
:10109800BD4680BD0004005080B500AF034B18006A
:1010A80001F08AFFC046BD4680BDC046AC000020A6
:1010B80080B500AF034B180001F07EFFC046BD4667
:1010C80080BDC0460801002080B500AF034B180062
:1010D80000F06CFDC046BD4680BDC04648000020FB
:1010E80080B500AF034B180003F016F9C046BD46A3
:1010F80080BDC0466401002080B500AF034B1800D6
:1011080003F000FFC046BD4680BDC046B0010020C8
:1011180080B500AF034B802212059A60C046BD46D9
:1011280080BDC04600ED00E00D488546FFF7F0FFA2
:101138000C480D490D4A002302E0D458C45004332A
:10114800C4188C42F9D30A4A0A4C002301E0136000
:101158000432A242FBD305F019F8FFF743F9FEE782
:10116800002000200000002010000020AC620008D1
:10117800100000204C020020FEE7000080B582B07D
:1011880000AFFB1D00221A700B4B1A680A4B802116
:1011980049000A431A60032000F010F8031E03D028
:1011A800FB1D01221A7001E0FFF7F8FDFB1D1B78FB
:1011B8001800BD4602B080BD0020024090B585B041
:1011C80000AF78600F23FB1800221A701D4B1B78A4
:1011D800002B2BD01C4B1C681A4B1B781900FA23C8
:1011E8009800FEF789FF030019002000FEF784FF2E
:1011F8000300180001F0F7FC031E12D17B68032BD3
:101208000AD8796801235B420022180001F0C6FC65
:101218000E4B7A681A600DE00F23FB1801221A7032
:1012280008E00F23FB1801221A7003E00F23FB18B4
:1012380001221A700F23FB181B781800BD4605B051
:1012480090BDC0460C0000200400002008000020CB
:1012580080B500AF054B1B781A00054B1B68D218E8
:10126800034B1A60C046BD4680BDC0460C00002036
:101278004802002080B500AF024B1B681800BD462D
:1012880080BDC0464802002080B584B000AF7860B9
:10129800FFF7F0FF0300BB607B68FB60FB6801336E
:1012A80005D00A4B1B781A00FB689B18FB60C046E8
:1012B800FFF7E0FF0200BB68D31AFA689A42F7D832
:1012C800C046C046BD4604B080BDC0460C000020E4
:1012D80080B582B000AF786039607B681B68054ACA
:1012E8001A403B681A437B681A60C046BD4602B084
:1012F80080BDC046FFFF3FFE80B582B000AF78607A
:101308007B681A68E0235B0413401800BD4602B0EE
:1013180080BD80B584B000AFF860B9607A60FB68C2
:101328005B69BA6804210A40072191400A00D24348
:101338001A40BB6804210B40796899400B001A4396
:10134800FB685A61C046BD4604B080BD80B582B016
:1013580000AF786039607B685B693A6804210A40AD
:10136800072191400A001A403B6804210B40DA40EB
:1013780013001800BD4602B080BD80B582B000AF32
:1013880078607B68DA68C0231B01134001D1012310
:1013980000E000231800BD4602B080BD80B584B0CF
:1013A80000AFF860B9607A60FB689B6ABA681F2171
:1013B8000A400F2191400A00D2431A407B689B0ED5
:1013C8000F211940BB681F20034099400B001A43A6
:1013D800FB689A62C046BD4604B080BD80B582B045
:1013E80000AF786039607B689A6A3B685B035B0B87
:1013F8001A437B689A62C046BD4602B080BD80B57C
:1014080082B000AF786039607B689B6A3A685203A3
:10141800520BD2431A407B689A62C046BD4602B05E
:1014280080BD80B582B000AF78607B68DB6803223E
:1014380013401800BD4602B080BD000080B584B0DE
:1014480000AFF860B9607A60FB685B69BA6812023D
:10145800D2431A40BB681B0279680B4004490B4011
:101468001A43FB685A61C046BD4604B080BDC046F9
:1014780000FFFF0780B586B000AFF860B9607A60FA
:10148800BB68114A934203D1FB680C337B6109E0C6
:10149800FB68A0331900BB685B0D9B000422134056
:1014A800CB187B617B691B68BA6808490A40D2433C
:1014B8001A407B68B9680B401A437B691A60C046BA
:1014C800BD4606B080BDC0460000C07CFFFFC77C9B
:1014D80080B586B000AFF860B9607A603B60FB68A1
:1014E80020331800BB681B0D03221A40BB685B0D34
:1014F80001210B40D3189B00C3187B617B691B68D3
:10150800064A1A407B6819043B680B431A437B69F7
:101518001A60C046BD4606B080BDC04600F000F067
:1015280080B582B000AF78607B689B68054A13403D
:10153800802252051A437B689A60C046BD4602B0B5
:1015480080BDC046E8FFFF6F80B582B000AF78600D
:101558007B689A6880235B051A4080235B059A4262
:1015680001D1012300E000231800BD4602B080BD70
:1015780080B582B000AF78607B689B68044A1340EE
:1015880001221A437B689A60C046BD4602B080BDFE
:10159800E8FFFF7F80B582B000AF78607B689B680A
:1015A800044A134002221A437B689A60C046BD462B
:1015B80002B080BDE8FFFF7F80B582B000AF7860E1
:1015C8007B689B6801221340012B01D1012300E0B5
:1015D80000231800BD4602B080BD80B582B000AFC0
:1015E80078607B689B6802221340022B01D101239B
:1015F80000E000231800BD4602B080BD80B582B06F
:1016080000AF78607B689B68044A134004221A4341
:101618007B689A60C046BD4602B080BDE8FFFF7F88
:1016280080B582B000AF78607B689B680422134065
:10163800042B01D1012300E000231800BD4602B0AD
:1016480080BD80B582B000AF78607B6880221A6068
:10165800C046BD4602B080BD80B582B000AF78609C
:101668007B68802252001A60C046BD4602B080BD29
:1016780080B582B000AF78607B68802292001A60E3
:10168800C046BD4602B080BD80B582B000AF78606C
:101698007B685B6880221A437B685A60C046BD46F7
:1016A80002B080BD80B582B000AF78607B685B68AF
:1016B800802252001A437B685A60C046BD4602B079
:1016C80080BD80B582B000AF78607B685B6880229F
:1016D80092001A437B685A60C046BD4602B080BD7E
:1016E80080B582B000AF78607B685B6880229343E6
:1016F8001A007B685A60C046BD4602B080BD000033
:1017080080B582B000AF78607B685B68034A1A4096
:101718007B685A60C046BD4602B080BDFFFEFFFF31
:1017280080B582B000AF78607B685B68034A1A4076
:101738007B685A60C046BD4602B080BDFFFDFFFF12
:1017480080B588B000AF78601F23FB1800221A709C
:101758000023BB6100237B610023FB607B68002BB7
:1017680001D101237FE17B689B6D002B0AD17B6847
:101778001800FFF737FB7B680022DA657B68542284
:10178800002199547B681B681800FFF7DDFE031ED3
:1017980015D17B681B681800FFF7C2FEB44B1B68A5
:1017A800B4491800FEF7A8FC030001335B00FB6096
:1017B80002E0FB68013BFB60FB68002BF9D17B680A
:1017C8001B681800FFF7C0FE031E0FD17B689B6DD6
:1017D80010221A437B689A657B68DB6D01221A43E5
:1017E8007B68DA651F23FB1801221A707B681B6867
:1017F8001800FFF715FF03003B617B689B6D102203
:10180800134000D022E13B69002B00D01EE17B6829
:101818009B6D994A134002221A437B689A657B683C
:101828001B681800FFF7C8FE031E00D0ADE07B68F8
:101838009A687B681B7E9B031A437B685B7EDB038D
:101848001A437B689B7E5B031A437B681B6B002BE8
:1018580002D080235B0100E000231A437B68DB6829
:101868001A437B681B69002B04DA7B681B695B00E1
:101878005B0801E080239B031A437B682C215B5C97
:101888005B001343BA691343BB617B6820229B5CEE
:10189800012B15D17B689B7E002B05D1BB6980226B
:1018A80052021343BB610BE07B689B6D20221A43F5
:1018B8007B689A657B68DB6D01221A437B68DA6571
:1018C8007B685B6A002B0AD07B685A6AE0235B005E
:1018D8001A407B689B6A1343BA691343BB617B68F0
:1018E8001B68DB68654A134019007B681B68BA6986
:1018F8000A43DA607B685B689B0F9A077B68DB6C3E
:1019080013437A6913437B617B683C229B5C012B00
:1019180011D17B685B689B0F9A077B681B6C1A4325
:101928007B685B6C1A437B689B6C1A437B69134327
:10193800012213437B617B681B681B69504A134073
:1019480019007B681B687A690A431A617B685A68C0
:10195800C0231B069A4218D07B685A688023DB058F
:101968009A4212D07B685A6880231B069A420CD090
:10197800444B1B68444A134019007B685A68F0239B
:101988009B031A403F4B0A431A607B6818687B68C0
:101998005B6B1A000021FFF7BCFC7B6818687B684A
:1019A8009B6B3A491A00FFF7B4FC7B681B69002B54
:1019B80009D17B681B689A6A7B681B6810214942B9
:1019C8000A439A6218E07B681A6980239B039A424B
:1019D80012D17B681B689B6A7B68DB69013B9B00B3
:1019E8001C221340102252429A4011007B681A6E42
:1019F8007B681B680A439A627B681B680021180091
:101A0800FFF7A4FC02007B685B6B9A420BD17B68F2
:101A18000022DA657B689B6D0322934301221A43F7
:101A28007B689A651CE07B689B6D122293431022A9
:101A38001A437B689A657B68DB6D01221A437B68D1
:101A4800DA651F23FB1801221A7009E07B689B6D79
:101A580010221A437B689A651F23FB1801221A700B
:101A68001F23FB181B781800BD4608B080BDC04670
:101A780004000020400D0300FDFEFFFF0102DEFF11
:101A880002FCFF1F08270140FFFFC3FF04FFFF07F9
:101A9800B0B586B000AFF860B9607A60FB681B68C3
:101AA8001800FFF7BDFD031E6CD1FB6854229B5C38
:101AB800012B01D102236CE0FB68542201219954C7
:101AC800FB681B68DB680122134013D1FB681B68A5
:101AD8001800FFF771FD031E04D0FB681B6818008F
:101AE800FFF758FDFB681B68DA68FB681B68012173
:101AF8000A43DA6017257C19FB68180000F010FE0D
:101B0800030023702C003B191B78002B3ED1FB6887
:101B18009B6D224A1340802252001A43FB689A6543
:101B2800FB680022DA65FB681B6D1D4ADA62FB68F8
:101B38001B6D1C4A1A63FB681B6D1B4A5A63FB68C2
:101B48001B681C221A60FB68542200219954FB6808
:101B58001B685A68FB681B6810210A435A60FB68B7
:101B6800186DFB681B6840331900BA683C197B681C
:101B780001F0D0F803002370FB681B681800FFF71A
:101B88003DFD03E01723FB1802221A701723FB18E8
:101B98001B781800BD4606B0B0BDC046FEF0FFFF7A
:101BA800F1280008B9290008D729000880B586B0AF
:101BB80000AF786000237B617B681B681B683B6112
:101BC8007B681B685B68FB603B690222134017D087
:101BD800FB680222134013D07B689B6D10221340D0
:101BE80006D17B689B6D802212011A437B689A6537
:101BF8007B68180000F016FF7B681B6802221A60D9
:101C08003B690422134003D0FB680422134007D128
:101C18003B69082213404DD0FB680822134049D085
:101C28007B689B6D1022134006D17B689B6D8022D8
:101C380092001A437B689A657B681B681800FFF757
:101C48009CFB031E2ED07B689B7E002B2AD17B68D1
:101C58001B681B6808221340082B23D17B681B686C
:101C68001800FFF7DDFC031E10D17B681B685A685B
:101C78007B681B680C218A435A607B689B6D564AB7
:101C8800134001221A437B689A650BE07B689B6DC1
:101C980020221A437B689A657B68DB6D01221A4310
:101CA8007B68DA657B68180000F098F87B681B6829
:101CB8000C221A603B698022134012D0FB688022F4
:101CC80013400ED07B689B6D802252021A437B68BA
:101CD8009A657B68180000F091F87B681B68802281
:101CE8001A603A6980235B00134014D0FA68802395
:101CF8005B0013400FD07B689B6D802292021A43D1
:101D08007B689A657B68180000F07CFE7B681B681E
:101D1800802252001A603A6980239B00134014D035
:101D2800FA6880239B0013400FD07B689B6D80224C
:101D3800D2021A437B689A657B68180000F06AFE35
:101D48007B681B68802292001A603B69102213404E
:101D58002BD0FB681022134027D07B681B6B002B0D
:101D680002D101237B6108E07B681B681800FFF73C
:101D780058FB031E01D001237B617B69012B10D125
:101D88007B689B6D8022D2001A437B689A657B68CA
:101D9800DB6D02221A437B68DA657B68180000F065
:101DA80035F87B681B6810221A603A6980239B010A
:101DB80013400DD0FA6880239B01134008D07B683C
:101DC800180000F037FE7B681B68802292011A60B9
:101DD800C046BD4606B080BDFEFEFFFF80B582B09E
:101DE80000AF7860C046BD4602B080BD80B582B005
:101DF80000AF7860C046BD4602B080BD80B582B0F5
:101E080000AF7860C046BD4602B080BD80B582B0E4
:101E180000AF7860C046BD4602B080BD80B586B0D0
:101E280000AF786039601723FB1800221A7000236E
:101E3800FB607B6854229B5C012B01D10223C0E12B
:101E48007B685422012199547B681B681800FFF7AE
:101E5800E7FB031E00D0A3E13B685B68022B00D1BF
:101E680043E17B681A6980231B069A4204D07B6889
:101E78001B69C14A934208D17B681A683B681B6892
:101E880019001000FFF7AAFAC9E07B681A6E3B68D0
:101E98005B681F210B400F2199400B00DB43134067
:101EA80019003B681B685B035B0B05D13B681B682B
:101EB8009B0E1F22134098E03B681B6801221340C9
:101EC80000D091E03B681B680222134000D089E0F3
:101ED8003B681B680422134000D081E03B681B6804
:101EE8000822134000D079E03B681B681022134099
:101EF80000D071E03B681B682022134000D069E0E5
:101F08003B681B684022134000D061E03B681B68B7
:101F18008022134000D059E03B681A6880235B0098
:101F2800134051D13B681A6880239B00134049D164
:101F38003B681A688023DB00134041D13B681A686C
:101F480080231B01134039D13B681A6880235B0149
:101F5800134031D13B681A6880239B01134029D173
:101F68003B681A688023DB01134021D13B681A685B
:101F780080231B02134019D13B681A6880235B0237
:101F8800134011D13B681A6880239B02134009D182
:101F98003B681A688023DB02134001D0122324E037
:101FA800002322E0112320E010231EE00F231CE071
:101FB8000E231AE00D2318E00C2316E00B2314E07F
:101FC8000A2312E0092310E008230EE007230CE09F
:101FD80006230AE0052308E0042306E0032304E0BF
:101FE800022302E0012300E000233A6852681F2020
:101FF800024093400A001A437B681A663B685B6894
:102008009B085A1C7B68DB699A4208D87B68186869
:102018003B6859683B681B681A00FFF7BFF97B6883
:1020280018683B6819683B689B681A00FFF706FA4E
:102038003B681B68002B00DBBCE0504B1800FFF727
:102048005BF903003B613B681B684D4A934222D110
:102058003A6980231B0413401DD13B698022120476
:102068001343464A19001000FFF732F9454B1B6825
:1020780045491800FEF740F803005A1C13005B009E
:102088009B189B00FB6002E0FB68013BFB60FB6860
:10209800002BF9D18EE03B681B683C4A93420ED175
:1020A8003A6980235B04134009D13B6980225204BA
:1020B8001343324A19001000FFF70AF97AE03B6827
:1020C8001B68334A934200D074E03A698023DB03EB
:1020D800134000D06EE03B698022D2031343274AA5
:1020E80019001000FFF7F4F864E07B681A69802390
:1020F8001B069A4204D07B681B691F4A934207D18A
:102108007B681A683B681B6819001000FFF777F9AD
:102118003B681B68002B4DDA184B1800FFF7ECF8EA
:1021280003003B613B681B68154A934208D13B6931
:10213800184A1340114A19001000FFF7C9F839E08E
:102148003B681B68114A934208D13B69124A134005
:102158000A4A19001000FFF7BBF82BE03B681B6820
:102168000B4A934226D13B690C4A1340034A190093
:102178001000FFF7ADF81DE00400008008270140BB
:10218800001000B004000020400D0300004000B81B
:10219800002000B4FFFF7FFFFFFFFFFEFFFFBFFF30
:1021A8007B689B6D20221A437B689A651723FB186E
:1021B80001221A707B685422002199541723FB18B6
:1021C8001B781800BD4606B080BDC04690B587B0E4
:1021D80000AF786039601723FB1800221A700023BB
:1021E800BB607B6854229B5C012B01D1022389E2EE
:1021F8007B685422012199547B681B681800FFF7FB
:102208000FFA031E00D04AE23B681B68A34A9342B8
:1022180062D17B681B681800FFF7CEF9031E09D04E
:102228000123BB601723FC187B68180000F0FEFA36
:10223800030023703B685B6880221204934211D02C
:10224800C0221204934215D17B6818683B689B68CA
:10225800934A1340C0221204134390491A00FFF70F
:1022680009F90FE07B681B688E4A8C491800FFF754
:1022780001F907E07B681B68884900221800FFF70E
:10228800F9F8C046BB68012B0BD11722BB181B7885
:10229800002B06D1BC187B68180000F041FA030037
:1022A80023707B689B6D804A1A407B689A657B68BF
:1022B8001B681800FFF7C5F93B681B7B012B05D18C
:1022C8007B681B681800FFF7DFF9E8E17B681B688B
:1022D8001800FFF705FAE2E13B685B688022120408
:1022E800934200D18FE1C0221204934200D093E1BF
:1022F8003B681B686D4A934200D0BCE07B681B6852
:10230800A02299583B689B685B035B0B08D13B682C
:102318009B689B0E1F22134001229A401300A4E0E1
:102328003B689B680122134000D09DE03B689B6896
:102338000222134000D095E03B689B6804221340BA
:1023480000D08DE03B689B680822134000D085E0F0
:102358003B689B681022134000D07DE03B689B6877
:102368002022134000D075E03B689B684022134050
:1023780000D06DE03B689B688022134000D065E088
:102388003B689A6880235B00134000D05BE03B68A1
:102398009A6880239B00134052D13B689A68802337
:1023A800DB00134049D13B689A6880231B01134026
:1023B80040D13B689A6880235B01134037D13B6862
:1023C8009A6880239B0113402ED13B689A6880232A
:1023D800DB01134025D13B689A6880231B02134018
:1023E8001CD13B689A6880235B02134013D13B6879
:1023F8009A6880239B0213400AD13B689A6880231D
:10240800DB02134002D08023DB022EE001232CE004
:1024180080239B0229E080235B0226E080231B02A5
:1024280023E08023DB0120E080239B011DE0802343
:102438005B011AE080231B0117E08023DB0014E016
:1024480080239B0011E080235B000EE080230CE0DA
:1024580040230AE0202308E0102306E0082304E0D4
:10246800042302E0022300E001237A6812680B4388
:10247800A0215350D9E07B681B68A42299583B6877
:102488009B685B035B0B13D13B689B689B0E1F2209
:10249800134001229A401300AFE0C0460000C07C00
:1024A800FFFF07FCFFFF8700FFFFFEFFFFFF17008E
:1024B8003B689B680122134000D09DE03B689B6805
:1024C8000222134000D095E03B689B680422134029
:1024D80000D08DE03B689B680822134000D085E05F
:1024E8003B689B681022134000D07DE03B689B68E6
:1024F8002022134000D075E03B689B6840221340BF
:1025080000D06DE03B689B688022134000D065E0F6
:102518003B689A6880235B00134000D05BE03B680F
:102528009A6880239B00134052D13B689A688023A5
:10253800DB00134049D13B689A6880231B01134094
:1025480040D13B689A6880235B01134037D13B68D0
:102558009A6880239B0113402ED13B689A68802398
:10256800DB01134025D13B689A6880231B02134086
:102578001CD13B689A6880235B02134013D13B68E7
:102588009A6880239B0213400AD13B689A6880238B
:10259800DB02134002D08023DB022EE001232CE073
:1025A80080239B0229E080235B0226E080231B0214
:1025B80023E08023DB0120E080239B011DE08023B2
:1025C8005B011AE080231B0117E08023DB0014E085
:1025D80080239B0011E080235B000EE080230CE049
:1025E80040230AE0202308E0102306E0082304E043
:1025F800042302E0022300E001237A6812680B43F7
:10260800A421535011E07B6818683B681B683F4A57
:102618001900FEF72FFF08E07B6818683B681B6805
:1026280000221900FEF726FFC0463B681B68384A9F
:1026380093421AD17B689B6D364A1A407B689A652B
:102648007B681B681800FFF707F83B681B7B012BAA
:1026580005D17B681B681800FFF724F81FE07B682A
:102668001B681800FFF74CF819E07B689B6D2A4A35
:102678001A407B689A657B681B681800FEF7F8FFAC
:102688003B681B7B012B05D17B681B681800FFF793
:1026980018F804E07B681B681800FFF741F83B68EE
:1026A8001B681E4A934218D13B681A697B681B68ED
:1026B800DB68DB0803210B405B009A4013003B6199
:1026C8003B685A697B681B68DB68DB0803210B40A1
:1026D8005B009A401300FB6005E03B681B693B61A7
:1026E8003B685B69FB607B6818683B681968FB6836
:1026F8003A69FEF7EDFE7B685422002199541723AE
:10270800FB181B781800BD4607B090BDFFFF870077
:10271800FFFF1700FFFFFDFFFFFFFBFF0000C07C6E
:1027280080B584B000AF78600023BB607B681B680D
:102738001800FEF741FF031E00D069E07B681B68A4
:102748009B68364A13400DD07B689B6D10221A4354
:102758007B689A657B68DB6D01221A437B68DA65C2
:10276800012356E07B681B681800FEF701FF2C4B1D
:102778001800FEF7C1FD020080231B0413400FD090
:10278800284B1B6828491800FDF7B6FC03000133E5
:10279800BB6002E0BB68013BBB60BB68002BF9D1A2
:1027A8007B685B7E012B33D0FEF764FD0300FB6082
:1027B80027E07B681B681800FEF7FEFE031E04D1A5
:1027C8007B681B681800FEF7D3FEFEF753FD020076
:1027D800FB68D31A022B14D97B681B681B6801227B
:1027E8001340012B0DD07B689B6D10221A437B6828
:1027F8009A657B68DB6D01221A437B68DA650123E1
:1028080007E07B681B681B6801221340012BD0D1AD
:1028180000231800BD4604B080BDC04617000080E4
:102828000827014004000020400D030080B584B053
:1028380000AF78607B681B681800FEF7CEFE0300C7
:10284800FB607B681B681800FEF7B6FE031E46D0C7
:10285800FB68002B43D17B681B689B6805221340EB
:10286800012B0DD17B681B681800FEF793FE7B686F
:102878001B6803221A60FEF7FDFC0300BB6028E01A
:102888007B689B6D10221A437B689A657B68DB6DB9
:1028980001221A437B68DA65012321E0FEF7EAFC8E
:1028A8000200BB68D31A022B13D97B681B689B688C
:1028B800012213400DD07B689B6D10221A437B6860
:1028C8009A657B68DB6D01221A437B68DA65012310
:1028D80006E07B681B689B6801221340DED1002359
:1028E8001800BD4604B080BD80B584B000AF7860E4
:1028F8007B689B6AFB60FB689B6D5022134041D14B
:10290800FB689B6D802292001A43FB689A65FB68FE
:102918001B681800FEF731FD031E2ED0FB689B7E56
:10292800002B2AD1FB681B681B6808221340082B60
:1029380023D1FB681B681800FEF772FE031E10D136
:10294800FB681B685A68FB681B680C218A435A603D
:10295800FB689B6D154A134001221A43FB689A6570
:102968000BE0FB689B6D20221A43FB689A65FB68A5
:10297800DB6D01221A43FB68DA65FB681800FFF774
:102988002DFA0FE0FB689B6D1022134004D0FB6802
:102998001800FFF73BFA05E0FB681B6D5B6B7A6874
:1029A80010009847C046BD4604B080BDFEFEFFFF3C
:1029B80080B584B000AF78607B689B6AFB60FB6879
:1029C8001800FFF713FAC046BD4604B080BD80B5B5
:1029D80084B000AF78607B689B6AFB60FB689B6D86
:1029E80040221A43FB689A65FB68DB6D04221A4390
:1029F800FB68DA65FB681800FFF708FAC046BD46B1
:102A080004B080BD80B582B000AF7860C046BD46D6
:102A180002B080BD80B582B000AF7860C046BD46C8
:102A280002B080BD80B582B000AF7860C046BD46B8
:102A380002B080BD80B582B000AF7860C046BD46A8
:102A480002B080BD80B582B000AF0200FB1D1A70D5
:102A5800FB1D1B787F2B09D8FB1D1B781A001F2331
:102A68001A40044B012191400A001A60C046BD4635
:102A780002B080BD00E100E090B583B000AF020075
:102A88003960FB1D1A70FB1D1B787F2B28D82F4A35
:102A9800FB1D1B785BB29B08C0339B009B58FA1D3B
:102AA8001278110003220A40D200FF2191400A0047
:102AB800D2431A4011003B689B01FF221A40FB1DBC
:102AC8001B78180003230340DB009A401F48FB1DB6
:102AD8001B785BB29B080A43C0339B001A5031E055
:102AE8001B4AFB1D1B7819000F230B40083B9B0852
:102AF80006339B00D31804331B68FA1D12781100A3
:102B080003220A40D200FF2191400A00D2431A4012
:102B180011003B689B01FF221A40FB1D1B7818001F
:102B280003230340DB009A400948FB1D1B781C0067
:102B38000F232340083B9B080A4306339B00C31816
:102B480004331A60C046BD4603B090BD00E100E002
:102B580000ED00E080B582B000AF78607B685A1E57
:102B680080235B049A4201D3012310E00A4B7A6860
:102B7800013A5A6001235B4203211800FFF77CFFEA
:102B8800054B00229A60044B07221A6000231800A4
:102B9800BD4602B080BDC04610E000E080B584B0FC
:102BA80000AFB9607A600F217B18021C1A70BA68EE
:102BB8007B181B785BB211001800FFF75DFFC04659
:102BC800BD4604B080BD80B582B000AF0200FB1DD9
:102BD8001A70FB1D1B785BB21800FFF733FFC04665
:102BE800BD4602B080BD80B582B000AF78607B681A
:102BF8001800FFF7AFFF03001800BD4602B080BD04
:102C080080B582B000AF78607B68002B01D10123CA
:102C180077E07B681B683D4A94466344142118009A
:102C2800FDF76AFA03009A007B681A647B6825221C
:102C3800022199547B681B681A687B681B683449B1
:102C48000A401A607B681B6819687B689A687B6809
:102C5800DB681A437B681B691A437B685B691A4304
:102C68007B689B691A437B68DB691A437B681B6A2C
:102C78001A437B681B680A431A607B68180000F0D7
:102C88008DFA7B689A688023DB019A4202D17B68BF
:102C980000225A607B685A687B685B6C3F210A4057
:102CA8001A607B689B6C7A68D26C5A607B685B6838
:102CB800002B11D07B685B68042B0DD87B6818004B
:102CC80000F098FA7B681B6D00221A607B685B6DC8
:102CD8007A68926D5A6008E07B6800221A657B6802
:102CE80000225A657B6800229A657B680022DA63B5
:102CF8007B682522012199547B682422002199545C
:102D080000231800BD4602B080BDC046F8FFFDBFD5
:102D18000F80FFFF80B586B000AFF860B9607A60B9
:102D28003B601723FB1800221A70FB6824229B5C67
:102D3800012B01D102236FE0FB6824220121995461
:102D4800FB6825229B5CDBB2012B57D1FB6825224F
:102D580002219954FB680022DA63FB681B681A6831
:102D6800FB681B6801218A431A603B687A68B96866
:102D7800F86800F0D3F9FB681B6B002B08D0FB68E0
:102D88001B681A68FB681B680E210A431A600FE06B
:102D9800FB681B681A68FB681B6804218A431A6071
:102DA800FB681B681A68FB681B680A210A431A60DB
:102DB800FB685B6C1A6880235B02134008D0FB68D1
:102DC8005B6C1A68FB685B6C802149000A431A60D7
:102DD800FB681B6D002B08D0FB681B6D1A68FB682D
:102DE8001B6D802149000A431A60FB681B681A683A
:102DF800FB681B6801210A431A600AE0FB6880220D
:102E0800DA63FB682422002199541723FB18012256
:102E18001A701723FB181B781800BD4606B080BD32
:102E280080B582B000AF78607B68002B01D10123A8
:102E380050E07B6825229B5CDBB2022B08D07B68C4
:102E48000422DA637B68242200219954012341E09B
:102E58007B681B681A687B681B680E218A431A60A6
:102E68007B685B6C1A687B685B6C1C490A401A605B
:102E78007B681B681A687B681B6801218A431A6093
:102E8800174B59687B681B6C1C22134001229A401F
:102E9800134B0A435A607B689B6C7A68D26C5A6001
:102EA8007B681B6D002B0CD07B681B6D1A687B68D8
:102EB8001B6D0A490A401A607B685B6D7A68926DDF
:102EC8005A607B682522012199547B6824220021BD
:102ED800995400231800BD4602B080BDFFFEFFFFD5
:102EE8000000024080B584B000AF78600F217B18E5
:102EF80000221A707B6825229B5CDBB2022B06D06D
:102F08007B680422DA637B1801221A7049E07B6827
:102F18001B681A687B681B680E218A431A607B68E5
:102F28001B681A687B681B6801218A431A607B68E2
:102F38005B6C1A687B685B6C1D490A401A601D4B04
:102F480059687B681B6C1C22134001229A40194B5C
:102F58000A435A607B689B6C7A68D26C5A607B68BB
:102F68001B6D002B0CD07B681B6D1A687B681B6D72
:102F78000F490A401A607B685B6D7A68926D5A60E7
:102F88007B682522012199547B68242200219954C9
:102F98007B689B6B002B04D07B689B6B7A68100066
:102FA80098470F23FB181B781800BD4604B080BD56
:102FB800FFFEFFFF0000024080B584B000AF7860DC
:102FC800554B1B68FB607B681B681B68BB607B6894
:102FD8001B6C1C22134004229A401300FA68134009
:102FE80027D0BB680422134023D07B681B681B686A
:102FF8002022134007D17B681B681A687B681B680E
:1030080004218A431A60444B59687B681B6C1C2254
:10301800134004229A40404B0A435A607B681B6B5A
:10302800002B00D173E07B681B6B7A68100098470F
:103038006DE07B681B6C1C22134002229A4013002F
:10304800FA6813402ED0BB68022213402AD07B684E
:103058001B681B68202213400BD17B681B681A6809
:103068007B681B680A218A431A607B682522012134
:103078009954294B59687B681B6C1C221340022207
:103088009A40254B0A435A607B68242200219954B0
:103098007B68DB6A002B3AD07B68DB6A7A681000B1
:1030A800984734E07B681B6C1C22134008229A4026
:1030B8001300FA6813402BD0BB680822134027D0AE
:1030C8007B681B681A687B681B680E218A431A6034
:1030D800114B59687B681B6C1C22134001229A40D3
:1030E8000D4B0A435A607B680122DA637B6825220C
:1030F800012199547B682422002199547B685B6BD9
:10310800002B05D07B685B6B7A6810009847C04637
:10311800C046BD4604B080BD0000024080B584B002
:1031280000AFF860B9607A603B60FB689B6CFA6836
:10313800D26C5A60FB681B6D002B04D0FB685B6D7A
:10314800FA68926D5A60144B5968FB681B6C1C2214
:10315800134001229A40104B0A435A60FB681B68CF
:103168003A685A60FB689B68102B08D1FB681B689B
:103178007A689A60FB681B68BA68DA6007E0FB68DF
:103188001B68BA689A60FB681B687A68DA60C04690
:10319800BD4604B080BDC0460000024080B584B082
:1031A80000AF78607B681B6C9B08104A94466344A8
:1031B8009B001A007B685A647B681B681A00FF230F
:1031C8001340083B14211800FCF796FF0300FB602E
:1031D8007B68074A9A64FB681F22134001229A40C1
:1031E8007B68DA64C046BD4604B080BD008200102A
:1031F8008008024080B584B000AF78607B685B6867
:103208003F221340FB60FB680A4A944663449B00D4
:103218001A007B681A657B68074A5A65FB68013B98
:103228000322134001229A407B689A65C046BD4636
:1032380004B080BD3F8200104009024080B586B0CE
:1032480000AF7860396000237B6147E13B681B6809
:1032580001217A6991400A001340FB60FB68002B4A
:1032680000D138E13B685B6803221340012B05D08D
:103278003B685B6803221340022B30D17B689B6854
:103288003B617B695B0003229A401300DA433B6988
:1032980013403B613B68DA687B695B009A40130026
:1032A8003A6913433B617B683A699A607B685B685B
:1032B8003B6101227B699A401300DA433B69134062
:1032C8003B613B685B681B0901221A407B699A4095
:1032D80013003A6913433B617B683A695A603B685B
:1032E8005B6803221340032B17D07B68DB683B61C4
:1032F8007B695B0003229A401300DA433B69134061
:103308003B613B689A687B695B009A4013003A69A5
:1033180013433B617B683A69DA603B685B68032268
:103328001340022B23D17B69DA087B6808329200AC
:10333800D3583B617B69072213409B000F229A40B8
:103348001300DA433B6913403B613B681A697B69A8
:1033580007210B409B009A4013003A6913433B61D5
:103368007B69DA087B68083292003969D1507B683A
:103378001B683B617B695B0003229A401300DA43B8
:103388003B6913403B613B685B6803221A407B69D9
:103398005B009A4013003A6913433B617B683A69C2
:1033A8001A603B685A68C0239B02134000D192E020
:1033B800504A7B699B0818339B009B583B617B698B
:1033C80003221340DB000F229A401300DA433B69C3
:1033D80013403B617A68A023DB059A4213D07B68CF
:1033E800454A93420DD07B68444A934207D07B6894
:1033F800434A934201D1032306E0052304E0022354
:1034080002E0012300E000237A6903210A40D20088
:1034180093403A6913433B6136497B699B081833EB
:103428009B003A695A50334B1B683B61FB68DA438F
:103438003B6913403B613B685A6880235B03134038
:1034480003D03A69FB6813433B612A4B3A691A6017
:10345800284B5B683B61FB68DA433B6913403B617F
:103468003B685A6880239B03134003D03A69FB6882
:1034780013433B611F4B3A695A601E4A8423D35851
:103488003B61FB68DA433B6913403B613B685A6820
:1034980080239B02134003D03A69FB6813433B61C6
:1034A800144984223B698B50124A8023D3583B61CC
:1034B800FB68DA433B6913403B613B685A688023E9
:1034C8005B02134003D03A69FB6813433B61094927
:1034D80080223B698B507B6901337B613B681A68AA
:1034E8007B69DA40131E00D0B0E6C046C046BD4630
:1034F80006B080BD001802400004005000080050CB
:10350800000C005080B582B000AF78600800110050
:10351800BB1C021C1A807B1C0A1C1A707B1C1B78A3
:10352800002B04D0BB1C1A887B689A6103E0BB1C83
:103538001A887B689A62C046BD4602B080BD80B5D5
:1035480084B000AF78600A00BB1C1A807B685B6996
:10355800FB60BB1C1B88FA6813401A04FB68DB433A
:10356800B91C09880B401A437B689A61C046BD465E
:1035780004B080BD80B584B000AF7860194B1B687B
:10358800194A13401900174B7A680A431A607A6877
:1035980080239B009A421FD1144B1A6813005B00CA
:1035A8009B185B0012491800FCF7A6FD03000133C5
:1035B800FB6008E0FB68002B03D0FB68013BFB6065
:1035C80001E0032309E0074B5A698023DB001A4016
:1035D8008023DB009A42EDD000231800BD4604B0DA
:1035E80080BDC04600700040FFF9FFFF04000020C6
:1035F80040420F0080B500AF034B9A68E023DB011F
:1036080013401800BD4680BD0010024080B588B048
:1036180000AF78607B68002B01D10123F3E27B685F
:103628001B680122134000D17CE0C34B9B68382201
:103638001340BB61C04BDB68032213407B61BB694D
:10364800102B02D17B69032B02D0BB69082B0BD14D
:10365800B94B1A6880239B02134062D07B685B6871
:10366800002B5ED10123CEE27B685A6880235B027F
:103678009A4207D1B04B1A68AF4B802149020A43DE
:103688001A6020E07B685A68A023DB029A420ED1B8
:10369800A94B1A68A84B8021C9020A431A60A64B95
:1036A8001A68A54B802149020A431A600BE0A24B15
:1036B8001A68A14BA1490A401A609F4B1A689E4B91
:1036C8009F490A401A607B685B68002B14D0FDF79D
:1036D800D1FD03003B6108E0FDF7CCFD02003B692A
:1036E800D31A642B01D903238DE2934B1A688023E4
:1036F8009B021340F0D015E0FDF7BCFD03003B61D1
:1037080008E0FDF7B7FD02003B69D31A642B01D925
:10371800032378E2884B1A6880239B021340F0D178
:1037280000E0C0467B681B680222134000D199E084
:10373800814B9B6838221340BB617F4BDB680322B7
:1037480013407B61BB69102B02D17B69022B02D02D
:10375800BB69002B35D1784B1A688023DB001340F6
:1037680005D07B68DB68002B01D101234BE2724B4B
:103778005B68744A134019007B685B691A026E4BD8
:103788000A435A60BB69002B12D16B4B1B686E4A07
:10379800134019007B681A69674B0A431A60664B25
:1037A8001B68DB0A07221340684ADA40684B1A6034
:1037B800684B1B681800FDF701FD031E51D001235B
:1037C80021E27B68DB68002B30D05B4B1B685E4ACC
:1037D800134019007B681A69574B0A431A60564B05
:1037E8001A68554B802149000A431A60FDF742FDCB
:1037F80003003B6108E0FDF73DFD02003B69D31A79
:10380800022B01D90323FEE14B4B1A688023DB000E
:103818001340F0D0484B5B684A4A134019007B6854
:103828005B691A02444B0A435A601BE0424B1A6810
:10383800414B49490A401A60FDF71CFD03003B61F2
:1038480008E0FDF717FD02003B69D31A022B01D9E6
:103858000323D8E1384B1A688023DB001340F0D1EA
:1038680000E0C0467B681B680822134047D0324BF3
:103878009B6838221340182B0AD12F4B1B6E02224B
:1038880013403CD07B689B69002B38D10123BAE1F7
:103898007B689B69002B19D0274B1A6E264B012198
:1038A8000A431A66FDF7E6FC03003B6108E0FDF7F2
:1038B800E1FC02003B69D31A022B01D90323A2E1E0
:1038C8001D4B1B6E02221340F1D018E01A4B1A6EE2
:1038D800194B01218A431A66FDF7CCFC03003B61B2
:1038E80008E0FDF7C7FC02003B69D31A022B01D997
:1038F800032388E1104B1B6E02221340F1D17B6831
:103908001B680422134000D1C6E01F23FB180022C5
:103918001A70094B9B6838221340202B1ED1064B86
:10392800DB6D0222134000D1B6E07B689B68002B58
:1039380000D0B1E0012366E100100240FFFFFEFF66
:10394800FFFFFBFFFF80FFFFFFC7FFFF0024F4001E
:103958000400002008000020FFFEFFFFAC4BDA6BDC
:1039680080235B05134001D1012300E00023002BD5
:1039780011D0A74BDA6BA64B802149050A43DA63BD
:10398800A34BDA6B80235B051340FB60FB681F23A6
:10399800FB1801221A709F4B1A6880235B001340A2
:1039A8001AD19C4B1A689B4B802149000A431A6024
:1039B800FDF760FC03003B6108E0FDF75BFC0200DB
:1039C8003B69D31A022B01D903231CE1914B1A68D6
:1039D80080235B001340F0D07B689B68012B06D1E5
:1039E8008B4BDA6D8A4B01210A43DA651CE07B6850
:1039F8009B68052B0CD1864BDA6D854B04210A4355
:103A0800DA65834BDA6D824B01210A43DA650BE0F4
:103A18007F4BDA6D7E4B01218A43DA657C4BDA6D88
:103A28007B4B04218A43DA657B689B68002B14D0A2
:103A3800FDF720FC03003B6109E0FDF71BFC0200D9
:103A48003B69D31A744A934201D90323DBE0704BD4
:103A5800DB6D02221340F0D013E0FDF70BFC0300EE
:103A68003B6109E0FDF706FC02003B69D31A6A4A8C
:103A7800934201D90323C6E0654BDB6D0222134054
:103A8800F0D11F23FB181B78012B05D1604BDA6B93
:103A98005F4B62490A40DA637B68DB69002B00D11F
:103AA800B0E05B4B9B6838221340102B00D178E0C4
:103AB8007B68DB69022B53D1554B1A68544B584924
:103AC8000A401A60FDF7D6FB03003B6108E0FDF7EA
:103AD800D1FB02003B69D31A022B01D9032392E0E0
:103AE8004B4B1A6880239B041340F0D1484BDB688A
:103AF8004C4A134019007B681A6A7B685B6A1A4350
:103B08007B689B6A1B021A437B68DB6A1A437B68E3
:103B18001B6B1A433E4B0A43DA603D4B1A683C4B19
:103B2800802149040A431A60394BDA68384B8021EE
:103B380049050A43DA60FDF79DFB03003B6108E095
:103B4800FDF798FB02003B69D31A022B01D9032326
:103B580059E02F4B1A6880239B041340F0D051E0A2
:103B68002B4B1A682A4B2E490A401A60FDF782FB34
:103B780003003B6108E0FDF77DFB02003B69D31AB7
:103B8800022B01D903233EE0214B1A6880239B04B2
:103B98001340F0D11E4BDA681D4B23490A40DA6006
:103BA80030E07B68DB69012B01D101232BE0184B46
:103BB800DB687B617B6903221A407B681B6A9A4237
:103BC8001ED17B6970221A407B685B6A9A4217D1C2
:103BD8007A69FE23DB011A407B689B6A1B029A42C2
:103BE8000ED17A69F8239B031A407B68DB6A9A42F4
:103BF80006D17B695B0F5A077B681B6B9A4201D021
:103C0800012300E000231800BD4608B080BDC0466F
:103C1800001002400070004088130000FFFFFFEF13
:103C2800FFFFFFFE8C80C11FFCFFFEEF80B584B054
:103C380000AF786039607B68002B01D10123E9E08F
:103C4800764B1B68072213403A689A421ED9734B79
:103C58001B68072293431900704B3A680A431A609D
:103C6800FDF708FB0300FB6009E0FDF703FB02001A
:103C7800FB68D31A6A4A934201D90323CAE0674B07
:103C88001B68072213403A689A42EED17B681B688A
:103C98000222134015D07B681B680422134006D00B
:103CA800604B9A685F4BE021C9010A439A605D4BFB
:103CB8009B685D4A134019007B689A68594B0A4310
:103CC8009A607B681B680122134057D07B685B6849
:103CD800012B07D1534B1A6880239B0213402BD129
:103CE800012397E07B685B68022B07D14D4B1A686C
:103CF80080239B0413401FD101238BE07B685B6802
:103D0800002B07D1474B1A688023DB00134013D1DF
:103D180001237FE07B685B68032B06D1414B1B6E58
:103D28000222134008D1012374E03E4BDB6D0222CE
:103D3800134001D101236DE03A4B9B68072293435E
:103D480019007B685A68374B0A439A60FDF792FA64
:103D58000300FB6009E0FDF78DFA0200FB68D31A47
:103D68002F4A934201D9032354E02E4B9B683822F3
:103D78001A407B685B68DB009A42ECD1274B1B68D2
:103D8800072213403A689A421ED2244B1B68072226
:103D980093431900214B3A680A431A60FDF76AFAFF
:103DA8000300FB6009E0FDF765FA0200FB68D31A1F
:103DB8001B4A934201D903232CE0184B1B680722A6
:103DC80013403A689A42EED17B681B68042213407C
:103DD80009D0144B9B68154A134019007B68DA68B0
:103DE800104B0A439A6000F029F801000D4B9B68BC
:103DF8001B0A0F221A400E4B9200D3581F22134061
:103E08000A00DA400B4B1A600B4B1B681800FDF7D1
:103E1800D5F903001800BD4604B080BD002002405B
:103E28008813000000100240FFF0FFFFFF8FFFFF24
:103E38001C620008040000200800002080B586B03D
:103E480000AF3C4B9B68382213400FD1394B1B689D
:103E5800DB0A0722134001229A4013003B603968AD
:103E68003548FCF749F903003B615DE0314B9B683D
:103E780038221340082B02D1304B3B6154E02D4BC4
:103E88009B6838221340102B38D12A4BDB68032259
:103E98001340FB60274BDB681B09072213400133E3
:103EA800BB60FB68032B0DD1B9682448FCF724F9E3
:103EB800030019001F4BDB681B0A7F2213404B438A
:103EC8007B610DE0B9681C48FCF716F9030019007E
:103ED800184BDB681B0A7F2213404B437B61C046AB
:103EE800144BDB685B0F0722134001337B60796852
:103EF8007869FCF701F903003B6115E00D4B9B68FD
:103F080038221340202B03D180231B023B610BE096
:103F1800084B9B6838221340182B03D1FA23DB0186
:103F28003B6101E000233B613B691800BD4606B0D8
:103F380080BDC046001002400024F40000127A0040
:103F480080B500AF024B1B681800BD4680BDC04657
:103F580004000020B0B500AFFFF7F2FF0400FFF740
:103F680049FB03001A0B054B9200D3581F2213403C
:103F7800DC4023001800BD46B0BDC0465C620008A6
:103F880080B586B000AF78601323FB1800221A7042
:103F98001223FB1800221A707B681A6880239B0280
:103FA800134000D1A3E011203B1800221A707F4B68
:103FB800DA6B80235B05134010D17C4BDA6B7B4BAB
:103FC800802149050A43DA63784BDA6B80235B0565
:103FD8001340BB60BB683B1801221A70744B1A6807
:103FE800734B802149000A431A60FDF743F9030027
:103FF800FB600BE0FDF73EF90200FB68D31A022BC9
:1040080004D91323FB1803221A7005E0684B1A68B9
:1040180080235B001340EDD01323FB181B78002B83
:1040280054D1624BDA6DC0239B0013407B617B69DE
:10403800002B19D07B685B697A699A4214D05B4B74
:10404800DB6D5C4A13407B61584BDA6D574B80211E
:1040580049020A43DA65554BDA6D544B56490A4012
:10406800DA65524B7A69DA657B690122134016D00A
:10407800FDF700F90300FB600CE0FDF7FBF8020018
:10408800FB68D31A4D4A934204D91323FB18032221
:104098001A7004E0454BDB6D02221340EDD0132368
:1040A800FB181B78002B0AD1404BDB6D414A1340AB
:1040B80019007B685A693D4B0A43DA650CE0122304
:1040C800FB181322BA1812781A7005E01223FB188D
:1040D8001322BA1812781A701123FB181B78012BB7
:1040E80005D1324BDA6B314B35490A40DA637B68CC
:1040F8001B680122134009D02C4B5B6D03229343AC
:1041080019007B685A68294B0A435A657B681B6803
:104118002022134009D0254B5B6D2A4A1340190011
:104128007B689A68214B0A435A657B681A68802322
:10413800DB01134015D01D4B5B6D9B0099087B6814
:104148001A691A4B0A435A657B681A698023DB058A
:104158009A4206D1154BDA68144B802149020A436A
:10416800DA607B681A6880231B01134016D00F4B56
:104178005B6D154A134019007B68DA680B4B0A43DC
:104188005A657B68DA688023DB019A4206D1074BBF
:10419800DA68064B802149020A43DA601223FB18C9
:1041A8001B781800BD4606B080BDC046001002400E
:1041B80000700040FFFCFFFFFFFFFEFF88130000B8
:1041C800FFFFFFEFFFCFFFFFFF3FFFFF80B582B08C
:1041D80000AF78607B68002B01D101234AE07B683F
:1041E8003D229B5CDBB2002B07D17B683C2200217F
:1041F80099547B681800FCF771FE7B683D22022108
:1042080099547B681A687B6804331900100000F021
:10421800C7FA7B684822012199547B683E22012114
:1042280099547B683F22012199547B6840220121DF
:1042380099547B684122012199547B6842220121CB
:1042480099547B684322012199547B6844220121B7
:1042580099547B684522012199547B6846220121A3
:1042680099547B684722012199547B683D2201219A
:10427800995400231800BD4602B080BD80B584B0B3
:1042880000AF78607B683D229B5CDBB2012B01D0DC
:10429800012337E07B683D22022199547B681B6823
:1042A800DA687B681B6801210A43DA607B681B684F
:1042B800164A934204D07B681B68154A934216D16C
:1042C8007B681B689B68134A1340FB60FB68062BDE
:1042D80016D0FA6880235B029A4211D07B681B686B
:1042E8001A687B681B6801210A431A6008E07B682A
:1042F8001B681A687B681B6801210A431A6000E082
:10430800C04600231800BD4604B080BD002C014003
:10431800000400400700010080B584B000AF786059
:104328007B681B68DB68FB607B681B681B69BB607C
:10433800BB680222134021D0FB68022213401DD023
:104348007B681B68032252421A617B6801221A7734
:104358007B681B689B690322134004D07B681800A4
:1043680000F006FA07E07B68180000F0F9F97B68AE
:10437800180000F005FA7B6800221A77BB6804224F
:10438800134022D0FB68042213401ED07B681B68B0
:10439800052252421A617B6802221A777B681B68E1
:1043A8009A69C0239B00134004D07B68180000F072
:1043B800DFF907E07B68180000F0D2F97B68180085
:1043C80000F0DEF97B6800221A77BB6808221340E8
:1043D80021D0FB68082213401DD07B681B68092286
:1043E80052421A617B6804221A777B681B68DB6972
:1043F8000322134004D07B68180000F0B9F907E0E5
:104408007B68180000F0ACF97B68180000F0B8F978
:104418007B6800221A77BB681022134022D0FB6801
:10442800102213401ED07B681B68112252421A6169
:104438007B6808221A777B681B68DA69C0239B00AF
:10444800134004D07B68180000F092F907E07B68FD
:10445800180000F085F97B68180000F091F97B6876
:1044680000221A77BB68012213400CD0FB68012296
:10447800134008D07B681B68022252421A617B688D
:104488001800FCF747FCBB688022134004D1BA68C7
:1044980080239B0113400BD0FB688022134007D078
:1044A8007B681B681E4A1A617B68180000F08EFB47
:1044B800BA6880235B0013400BD0FB68802213404E
:1044C80007D07B681B68174A1A617B68180000F0E0
:1044D80085FBBB68402213400CD0FB684022134088
:1044E80008D07B681B68412252421A617B68180019
:1044F80000F04EF9BB68202213400CD0FB68202244
:10450800134008D07B681B68212252421A617B68DD
:10451800180000F053FBC046BD4604B080BDC0463D
:104528007FDFFFFFFFFEFFFF80B584B000AF78603C
:1045380039600F23FB1800221A707B683C229B5CB1
:10454800012B01D10223BCE07B683C220121995454
:104558007B683D22022199547B681B689B68BB607D
:10456800BB685A4A1340BB60BB68594A1340BB60DA
:104578007B681B68BA689A603B681B688022920156
:10458800934240D080229201934200D988E0802251
:104598005201934200D188E080225201934200D90F
:1045A8007EE0702B18D000D97AE0602B4FD000D96C
:1045B80076E0502B3BD000D972E0402B57D000D981
:1045C8006EE0302B63D06BD8202B60D068D8002BDE
:1045D8005DD0102B5BD063E07B6818683B689968F6
:1045E8003B685A683B68DB6800F066FA7B681B68C2
:1045F8009B68BB60BB6877221343BB607B681B6802
:10460800BA689A6052E07B6818683B6899683B68AA
:104618005A683B68DB6800F04FFA7B681B689A6849
:104628007B681B688021C9010A439A603EE07B6869
:1046380018683B6859683B68DB681A0000F0C0F9E5
:104648007B681B685021180000F01AFA2EE07B687E
:1046580018683B6859683B68DB681A0000F0DEF9A7
:104668007B681B686021180000F00AFA1EE07B686E
:1046780018683B6859683B68DB681A0000F0A0F9C5
:104688007B681B684021180000F0FAF90EE07B688F
:104698001A683B681B681900100000F0F1F905E082
:1046A8000F23FB1801221A7000E0C0467B683D22E8
:1046B800012199547B683C22002199540F23FB184F
:1046C8001B781800BD4604B080BDC04688FFCEFFE9
:1046D800FF00FFFF80B582B000AF786039607B686B
:1046E8003C229B5C012B01D1022332E07B683C22F7
:1046F800012199547B683D22022199543A687B68CC
:104708001100180000F0C6F8031E09D07B683D228E
:10471800012199547B683C2200219954012318E017
:104728007B681B68DA687B681B6840218A43DA600B
:104738007B681B68DA687B681B6808490A40DA608E
:104748007B683D22012199547B683C2200219954C1
:1047580000231800BD4602B080BDC046FFBFFFFF62
:1047680080B582B000AF7860C046BD4602B080BD5B
:1047780080B582B000AF7860C046BD4602B080BD4B
:1047880080B582B000AF7860C046BD4602B080BD3B
:1047980080B582B000AF7860C046BD4602B080BD2B
:1047A80080B584B000AF786039607B681B68FB60B7
:1047B8007B68324A934203D07B68314A934208D1DE
:1047C800FB6870229343FB603B685B68FA6813439D
:1047D800FB607B68294A93420FD07B68284A934242
:1047E8000BD07B68274A934207D07B68264A9342BE
:1047F80003D07B68254A934208D1FB68244A1340BA
:10480800FB603B68DB68FA681343FB60FB68802247
:1048180093431A003B685B691343FB607B68FA6843
:104828001A603B689A687B68DA623B681A687B683A
:104838009A627B68114A934207D07B68124A934276
:1048480003D07B68114A934203D13B681A697B689D
:104858001A637B6801225A617B681B690122134035
:10486800012B06D17B681B69012293431A007B68E0
:104878001A61C046BD4604B080BDC046002C014048
:10488800000400400020004000440140004801406E
:10489800FFFCFFFF80B586B000AF78603960172352
:1048A800FB1800221A707B681B689B683B613B6998
:1048B800414A13403B613B685B683A6913433B617B
:1048C8003B693E4A13403B613B681B683A691343A6
:1048D8003B617B681B683A699A603B685B68702B30
:1048E80015D000D95BE0602B4FD058D8502B42D060
:1048F80055D8402B16D052D8302B55D04FD8202B16
:1049080052D04CD8002B4FD0102B4DD047E07B68AD
:1049180018683B68D9683B689A683B681B6900F06F
:10492800CBF842E03B681B68052B01D101233FE02F
:104938007B681B681B6AFB607B681B681A6A7B685C
:104948001B6801218A431A627B681B689B69BB60EC
:10495800BB68F0229343BB603B681B691B01BA68C4
:104968001343BB607B681B68BA689A617B681B68E5
:10497800FA681A6219E07B6818683B6899683B68AE
:104988001B691A0000F01CF80FE07B6818683B6888
:1049980099683B681B691A0000F040F805E0172386
:1049A800FB1801221A7000E0C0461723FB181B7879
:1049B8001800BD4606B080BD8FFFCFFFF8FFFEFF91
:1049C80080B586B000AFF860B9607A60FB681B6A92
:1049D8007B61FB681B6A012293431A00FB681A6219
:1049E800FB689B693B613B69F02293433B617B68B1
:1049F8001B013A6913433B617B690A2293437B613C
:104A08007A69BB6813437B61FB683A699A61FB6802
:104A18007A691A62C046BD4606B080BD80B586B0C8
:104A280000AFF860B9607A60FB681B6A7B61FB685D
:104A38001B6A102293431A00FB681A62FB689B6981
:104A48003B613B690D4A13403B617B681B033A6934
:104A580013433B617B69A02293437B61BB681B01C5
:104A68007A6913437B61FB683A699A61FB687A69E2
:104A78001A62C046BD4606B080BDC046FF0FFFFFA4
:104A880080B584B000AF786039607B689B68FB6054
:104A9800FB68084A1340FB603A68FB681343072227
:104AA8001343FB607B68FA689A60C046BD4604B051
:104AB80080BDC0468FFFCFFF80B586B000AFF860DD
:104AC800B9607A603B60FB689B687B617B69094AD7
:104AD80013407B613B681A027B681A43BB68134327
:104AE8007A6913437B61FB687A699A60C046BD4660
:104AF80006B080BDFF00FFFF80B584B000AF7860CE
:104B080039607B683C229B5C012B01D102234AE07F
:104B18007B683C22012199547B683D2202219954EB
:104B28007B681B685B68FB607B681B689B68BB6075
:104B38007B681B681E4A934208D1FB681D4A1340D4
:104B4800FB603B685B68FA681343FB60FB68702294
:104B58009343FB603B681B68FA681343FB607B6800
:104B68001B68FA685A607B681B68114A934204D034
:104B78007B681B68104A93420CD1BB688022934320
:104B8800BB603B689B68BA681343BB607B681B6863
:104B9800BA689A607B683D22012199547B683C225F
:104BA8000021995400231800BD4604B080BDC046BA
:104BB800002C0140FFFF0FFF0004004080B582B0C9
:104BC80000AF7860C046BD4602B080BD80B582B0F7
:104BD80000AF7860C046BD4602B080BD80B582B0E7
:104BE80000AF7860C046BD4602B080BD80B582B0D7
:104BF80000AF78607B68002B01D1012346E07B6819
:104C080088229B58002B07D17B6884220021995465
:104C18007B681800FCF78AF97B6888222421995060
:104C28007B681B681A687B681B6801218A431A60C5
:104C38007B689B6A002B03D07B68180000F016FE87
:104C48007B68180000F0A8FC0300012B01D10123A8
:104C58001CE07B681B685A687B681B680D490A4022
:104C68005A607B681B689A687B681B682A218A439C
:104C78009A607B681B681A687B681B6801210A4375
:104C88001A607B68180000F0A5FE03001800BD46F6
:104C980002B080BDFFB7FFFF80B58AB002AFF860F1
:104CA800B9603B60BB1D1A80FB6888229B58202B8B
:104CB80000D090E0BB68002B03D0BB1D1B88002BE5
:104CC80001D1012388E0FB689A6880235B019A423E
:104CD80009D1FB681B69002B05D1BB680122134071
:104CE80001D0012378E0FB68902200219950FB68ED
:104CF800882221219950FCF7BDFA03007B61FB68EB
:104D0800BA1D542112885A52FB68BA1D56211288BE
:104D18005A52FB689A6880235B019A4208D1FB6863
:104D28001B69002B04D10023FB61BB68BB6103E056
:104D3800BB68FB610023BB6130E07A69F8683B68B7
:104D4800009313000022802100F0EEFE031E05D020
:104D5800FB6888222021995003233DE0FB69002B42
:104D68000BD1BB691B881A00FB681B68D205D20DE2
:104D78009A62BB690233BB6107E0FB691A78FB687A
:104D88001B689A62FB690133FB61FB6856229B5AD8
:104D98009BB2013B99B2FB6856229952FB68562296
:104DA8009B5A9BB2002BC8D17A69F8683B6800937C
:104DB80013000022402100F0B7FE031E05D0FB6857
:104DC800882220219950032306E0FB6888222021AD
:104DD8009950002300E002231800BD4608B080BDAA
:104DE80080B588B000AFF860B960BB1D1A80FB6859
:104DF80088229B58202B00D079E0BB68002B03D079
:104E0800BB1D1B88002B01D1012371E0FB689A6848
:104E180080235B019A4209D1FB681B69002B05D1ED
:104E2800BB680122134001D0012361E0FB68BA6826
:104E38001A65FB68BA1D542112885A52FB68BA1DBC
:104E4800562112885A52FB68902200219950FB681B
:104E5800882221219950FB68DB6F002B28D0FB6842
:104E6800DB6F254ADA62FB68DB6F244A1A63FB684A
:104E7800DB6F234A5A63FB68DB6F00229A63FB6887
:104E8800D86FFB681B6D1900FB681B6828331A0074
:104E9800BB1D1B88FDF73EFF031E09D0FB6890224F
:104EA80010219950FB6888222021995001231FE086
:104EB800FB681B6840221A62EFF310833B613B6971
:104EC800FB6101237B617B6983F31088C046FB6823
:104ED8001B689A68FB681B6880210A439A60FB6913
:104EE800BB61BB6983F31088C046002300E002233E
:104EF8001800BD4608B080BD5D5D0008F55D00087E
:104F0800135E0008B0B5AAB000AF78607B681B6874
:104F1800DB69A422B9180B607B681B681B68A0209A
:104F280039180B607B681B689B689C2439190B60D7
:104F38001100BB181B68A24A13409822BD182B60A9
:104F4800BB181B68002B1AD17B181B682022134042
:104F580015D03B181B682022134005D13B191A684D
:104F680080235B0513400AD07B685B6F002B00D160
:104F7800DCE27B685B6F7A6810009847D6E298237A
:104F8800FB181B68002B00D122E19C23FB181B682F
:104F98008C4A134006D1A023FB181B688A4A134089
:104FA80000D115E1A423FB181B680122134012D07D
:104FB800A023FB181A6880235B0013400BD07B6882
:104FC8001B6801221A627B6890229B5801221A43AF
:104FD8007B6890215A50A423FB181B6802221340B7
:104FE80011D09C23FB181B68012213400BD07B684F
:104FF8001B6802221A627B6890229B5804221A437B
:105008007B6890215A50A423FB181B680422134084
:1050180011D09C23FB181B68012213400BD07B681E
:105028001B6804221A627B6890229B5802221A434A
:105038007B6890215A50A423FB181B680822134050
:1050480017D0A023FB181B682022134005D19C23EE
:10505800FB181B685B4A13400BD07B681B6808224F
:105068001A627B6890229B5808221A437B68902119
:105078005A50A423FB181A6880231B01134013D02D
:10508800A023FB181A688023DB0413400CD07B682C
:105098001B68802212011A627B6890229B5820228A
:1050A8001A437B6890215A507B6890229B58002BAA
:1050B80000D13DE2A423FB181B682022134015D021
:1050C800A023FB181B682022134006D19C23FB1841
:1050D8001A6880235B05134008D07B685B6F002B40
:1050E80004D07B685B6F7A68100098477B689022D1
:1050F8009B5894217A1813607B681B689B68402230
:105108001340402B04D07B181B68282213404CD036
:105118007B68180000F0B8FD7B681B689B6840221C
:105128001340402B3CD1EFF310833B663B6E90203D
:105138003A18136001237B667B6E83F31088C046A0
:105148007B681B689A687B681B6840218A439A6061
:105158003B181B68BB66BB6E83F31088C0467B6830
:1051680080229B58002B16D07B6880229B58174AB8
:105178009A637B6880229B581800FDF7B3FE031ED4
:105188001CD07B6880229B589B6B7A688021525880
:105198001000984712E07B68180000F0E9F90DE06C
:1051A8007B68180000F0E4F908E07B68180000F05C
:1051B800DFF97B68902200219950B9E1C046B7E138
:1051C8000F0800000100001020010004995E00088B
:1051D8007B68DB6E012B00D03EE1A423FB181B6823
:1051E8001022134000D137E1A023FB181B681022BE
:1051F800134000D130E17B681B6810221A627B687B
:105208001B689B6840221340402B00D0A4E07B68B9
:1052180080229B581B685A687E217B181A807B184D
:105228001B88002B00D185E17B685C229B5A7A1889
:1052380012889A4200D37DE17B687A185E21128831
:105248005A527B6880229B581B681B682022134097
:1052580070D1EFF310833B633B6BBB6701237B6328
:105268007B6B83F31088C0467B681B681A687B6871
:105278001B68B4490A401A60BB6FBB63BB6B83F3FE
:105288001088C046EFF31083FB63FB6B7B67012339
:105298003B643B6C83F31088C0467B681B689A6844
:1052A8007B681B6801218A439A607B6F7B647B6CF7
:1052B80083F31088C046EFF31083BB64BB6C3B6775
:1052C8000123FB64FB6C83F31088C0467B681B6872
:1052D8009A687B681B6840218A439A603B6F3B65EC
:1052E8003B6D83F31088C0467B688C22202199503F
:1052F8007B680022DA66EFF310837B657B6DFB66C3
:105308000123BB65BB6D83F31088C0467B681B68AF
:105318001A687B681B6810218A431A60FB6EFB655C
:10532800FB6D83F31088C0467B6880229B58180069
:10533800FDF776FD7B6802221A677B685C229A5A21
:105348007B685E215B5A9BB2D31A9AB27B681100C4
:10535800180000F015F9EDE07B685C22995A7B682B
:105368005E229B5A9AB28E203B188A1A1A807B6852
:105378005E229B5A9BB2002B00D1DDE03B181B88B4
:10538800002B00D1D8E0EFF31083FB60FB68882482
:105398003A19136001233B613B6983F31088C046C7
:1053A8007B681B681A687B681B6867490A401A6033
:1053B8003B191B687B617B6983F31088C046EFF358
:1053C8001083BB61BB6984243A1913600123FB6114
:1053D800FB6983F31088C0467B681B689A687B6802
:1053E8001B685A490A409A603B191B683B623B6A32
:1053F80083F31088C0467B688C22202199507B68F3
:105408000022DA667B6800225A67EFF310837B621A
:105418007B6A80243A1913600123BB62BB6A83F359
:105428001088C0467B681B681A687B681B68102157
:105438008A431A603B191B68FB62FB6A83F3108876
:10544800C0467B6802221A673B181A887B681100DD
:10545800180000F095F86FE0A423FB181A68802361
:105468005B03134010D09C23FB181A688023DB03CE
:10547800134009D07B681B68802252031A627B683C
:10548800180000F048FD5AE0A423FB181B6880228E
:10549800134016D0A023FB181B688022134006D1A6
:1054A8009C23FB181A6880231B04134009D07B68CF
:1054B8009B6F002B42D07B689B6F7A6810009847DF
:1054C8003CE0A423FB181B68402213400AD0A02309
:1054D800FB181B684022134004D07B68180000F0BA
:1054E800EEFC2CE0A423FB181A6880231B0413404D
:1054F8000BD0A023FB181A688023DB05134004D0C7
:105508007B68180000F017FD19E0A423FB181A683F
:1055180080235B04134012D0A023FB181B68002BC8
:105528000DDA7B68180000F0FEFC08E0C04606E0D3
:10553800C04604E0C04602E0C04600E0C046BD46A2
:105548002AB0B0BDFFFEFFFFDFFEFFFFFEFFFFEF4B
:1055580080B582B000AF7860C046BD4602B080BD5D
:1055680080B582B000AF7860C046BD4602B080BD4D
:1055780080B582B000AF7860C046BD4602B080BD3D
:1055880080B582B000AF78600A00BB1C1A80C046A4
:10559800BD4602B080BD000080B588B000AF78601D
:1055A8001A23FB1800221A707B689A687B681B69AB
:1055B8001A437B685B691A437B68DB691343FB61A9
:1055C8007B681B681B68A14A134019007B681B682D
:1055D800FA690A431A607B681B685B689C4A134037
:1055E80019007B68DA687B681B680A435A607B6825
:1055F8009B69FB617B681B6AFA691343FB617B68E3
:105608001B689B68934A134019007B681B68FA69FA
:105618000A439A607B681B68DB6A0F229343190070
:105628007B685A6A7B681B680A43DA627B681B6876
:10563800894A934227D1894B5B6D03221340032B80
:1056480017D01BD8022B0AD018D8002B02D0012B58
:105658000AD013E01B23FB1800221A7021E01B2339
:10566800FB1802221A701CE01B23FB1804221A7074
:1056780017E01B23FB1808221A7012E01B23FB18E3
:1056880010221A700DE07B681B68754A934204D19A
:105698001B23FB1800221A7003E01B23FB1810229F
:1056A8001A707B68DA6980231B029A4200D065E091
:1056B8001B23FB181B78082B15D018DC042B0DD0E6
:1056C80015DC002B02D0022B05D010E0FEF742FCBF
:1056D80003007B6112E0634B7B610FE0FEF7AEFBDA
:1056E80003007B610AE080231B027B6106E0002344
:1056F8007B611A23FB1801221A70C0467B69002BB4
:1057080000D18DE07B685A6A574B5200D35A190072
:105718007869FAF7F1FC03005A007B685B685B085C
:10572800D2187B685B6819001000FAF7E5FC0300E3
:105738003B613B690F2B1CD93A6980235B029A4273
:1057480017D23B699AB20E203B180F218A431A8060
:105758003B695B089BB20722134099B23B183A1881
:1057680012880A431A807B681B683A181288DA6024
:1057780056E01A23FB1801221A7051E01B23FB186C
:105788001B78082B15D018DC042B0DD015DC002B4A
:1057980002D0022B05D010E0FEF7DCFB03007B6192
:1057A80012E0304B7B610FE0FEF748FB03007B61A2
:1057B8000AE080231B027B6106E000237B611A2339
:1057C800FB1801221A70C0467B69002B28D07B6821
:1057D8005A6A254B5200D35A19007869FAF78CFC9B
:1057E80003001A007B685B685B08D2187B685B68FB
:1057F80019001000FAF780FC03003B613B690F2B8E
:105808000AD93A6980235B029A4205D23B699AB267
:105818007B681B68DA6003E01A23FB1801221A7000
:105828007B686A22012199527B686822012199527A
:105838007B6800225A677B6800229A671A23FB1844
:105848001B781800BD4608B080BDC046F369FFCF7D
:10585800FFCFFFFFFFF4FF110038014000100240A6
:10586800004400400024F4007C62000880B582B047
:1058780000AF78607B689B6A082213400BD07B6876
:105888001B685B684A4A134019007B689A6B7B68FF
:105898001B680A435A607B689B6A012213400BD03D
:1058A8007B681B685B68434A134019007B68DA6AA7
:1058B8007B681B680A435A607B689B6A0222134014
:1058C8000BD07B681B685B683B4A134019007B68F8
:1058D8001A6B7B681B680A435A607B689B6A0422C0
:1058E80013400BD07B681B685B68344A134019006F
:1058F8007B685A6B7B681B680A435A607B689B6AA3
:10590800102213400BD07B681B689B682C4A1340FD
:1059180019007B68DA6B7B681B680A439A607B68AE
:105928009B6A202213400BD07B681B689B68254A22
:10593800134019007B681A6C7B681B680A439A60DD
:105948007B689B6A402213401DD07B681B685B689C
:105958001D4A134019007B685A6C7B681B680A4310
:105968005A607B685A6C80235B039A420BD17B6830
:105978001B685B68154A134019007B689A6C7B6842
:105988001B680A435A607B689B6A802213400BD0CD
:105998007B681B685B680E4A134019007B68DA6CE9
:1059A8007B681B680A435A60C046BD4602B080BD8A
:1059B800FF7FFFFFFFFFFDFFFFFFFEFFFFFFFBFF76
:1059C800FFEFFFFFFFDFFFFFFFFFEFFFFFFF9FFF7F
:1059D800FFFFF7FF80B592B002AF78607B68902236
:1059E80000219950FBF746FC0300FB637B681B68AA
:1059F8001B6808221340082B2DD1FB6B80229103D2
:105A08007868474A0092002200F08EF8031E22D0E0
:105A1800EFF310837B627B6ABB630123BB62BB6AC3
:105A280083F31088C0467B681B681A687B681B680C
:105A380080218A431A60BB6BFB62FB6A83F3108880
:105A4800C0467B688822202199507B6884220021E7
:105A58009954032360E07B681B681B680422134089
:105A6800042B46D1FB6B8022D10378682C4A009224
:105A7800002200F059F8031E3BD0EFF31083FB60BF
:105A8800FB687B6301233B613B6983F31088C04655
:105A98007B681B681A687B681B6822490A401A6081
:105AA8007B6B7B617B6983F31088C046EFF31083BF
:105AB800BB61BB693B630123FB61FB6983F310880E
:105AC800C0467B681B689A687B681B6801218A430B
